:020000040800F2
:1000000000800120D53A00082109000827090008CE
:100010002D09000833090008390900080000000014
:100020000000000000000000000000003F09000880
:100030004D090008000000005B090008690900087C
:10004000253B0008253B0008253B0008253B000810
:10005000253B0008253B0008253B0008253B000800
:10006000253B0008253B0008253B0008253B0008F0
:10007000253B0008253B0008253B0008253B0008E0
:10008000253B0008253B0008253B00080000000038
:10009000000000000000000000000000253B0008F8
:1000A000253B0008253B0008253B0008253B0008B0
:1000B000253B0008253B0008253B00087509000882
:1000C00089090008253B0008253B0008253B00085E
:1000D000253B0008253B0008253B000800000000E8
:1000E000253B0008253B0008253B000800000000D8
:1000F000000000000000000000000000253B000898
:1001000000000000253B0008253B0008253B0008B7
:1001100000000000000000000000000000000000DF
:10012000253B0008253B0008253B0008253B00082F
:10013000253B000800000000000000000000000057
:10014000000000000000000000000000253B000847
:10015000253B0008253B0008253B0008253B0008FF
:10016000253B0008253B00080000000000000000BF
:10017000000000000000000000000000000000007F
:1001800000000000253B0008000000000000000007
:04019000253B000803
:1001940010B5054C237833B9044B13B10448AFF3BD
:1001A40000800123237010BD0C000020000000001B
:1001B400803B000808B5034B1BB103490348AFF368
:1001C400008008BD0000000010000020803B0008F3
:1001D40053B94AB9002908BF00281CBF4FF0FF31AA
:1001E4004FF0FF3000F07AB9ADF1080C6DE904CEA0
:1001F40000F006F8DDF804E0DDE9022304B07047FE
:100204002DE9F0478C460D460446089E002B51D13B
:100214008A4217466DD9B2FA82FEBEF1000F0BD0A6
:10022400CEF1200C01FA0EF520FA0CFC02FA0EF7BE
:100234004CEA050C00FA0EF44FEA174A250CBCFBF5
:10024400FAF81FFA87F90AFB18CC45EA0C4508FBB3
:1002540009F3AB420AD9ED1908F1FF3280F023818A
:10026400AB4240F22081A8F102083D44ED1AA4B249
:10027400B5FBFAF00AFB105544EA054400FB09F902
:10028400A14509D9E41900F1FF3380F00A81A145A1
:1002940040F2078102383C44A4EB090440EA0840D8
:1002A4000021002E61D024FA0EF400233460736020
:1002B400BDE8F0878B4207D9002E54D0002186E890
:1002C40021000846BDE8F087B3FA83F1002940F025
:1002D4008E80AB4202D3824200F2FA80841A65EB2C
:1002E40003050120AC46002E3FD086E81010BDE87F
:1002F400F08712B90127B7FBF2F7B7FA87FEBEF110
:10030400000F34D1EB1B3A0C1FFA87FC0121B3FB1D
:10031400F2F8250C02FB183345EA03450CFB08F3FD
:10032400AB4207D9ED1908F1FF3002D2AB4200F21B
:10033400D1808046ED1AA3B2B5FBF2F002FB105552
:1003440043EA05440CFB00FCA44507D9E41900F179
:10035400FF3302D2A44500F2B8801846A4EB0C0483
:1003640040EA08409DE731463046BDE8F087CEF1CB
:10037400200405FA0EF307FA0EF720FA04F83A0CF3
:1003840025FA04F448EA0308B4FBF2F14FEA1845ED
:1003940002FB11441FFA87FC45EA044501FB0CF3F8
:1003A400AB4200FA0EF409D9ED1901F1FF3080F0E7
:1003B4008A80AB4240F2878002393D44EB1A1FFA2F
:1003C40088F5B3FBF2F002FB103345EA034500FB6A
:1003D4000CF3AB4207D9ED1900F1FF386FD2AB42F1
:1003E4006DD902383D44EB1A40EA01418FE7C1F16F
:1003F400200722FA07F88B4005FA01F448EA0303C0
:1004040020FA07FE4FEA134CFD404EEA040EB5FBFA
:10041400FCF94FEA1E440CFB19551FFA83F844EA11
:10042400054509FB08F4AC4202FA01F200FA01FAAC
:1004340008D9ED1809F1FF3043D2AC4241D9A9F1F2
:1004440002091D442D1B1FFA8EFEB5FBFCF00CFBAC
:1004540010554EEA054400FB08F8A04507D9E418F6
:1004640000F1FF3529D2A04527D902381C4440EABF
:100474000940A4EB0804A0FB02894C45C6464D463E
:1004840015D312D056B1BAEB0E0364EB050404FA8B
:1004940007F7CB401F43CC40376074600021BDE8B0
:1004A400F0871846F8E69046E0E6C245EAD2B8EB93
:1004B400020E69EB03050138E4E72846D7E7404616
:1004C40091E78146BEE7014678E702383C4445E7B8
:1004D400084608E7A8F102083D442BE7704700BF2F
:1004E40080B586B002AF0346FB7100233B73FB79F2
:1004F4007B7307F10C024FF0FF3300930223A0211A
:10050400034800F003FF00BF1037BD4680BD00BFA5
:100514002800002080B586B002AF0346FB7180231B
:100524003B73FB797B7307F10C024FF0FF330093AD
:100534000223A021034800F0E9FE00BF1037BD46A6
:1005440080BD00BF2800002080B500AF0120FFF768
:10055400C7FF052000F0A4FA3820FFF7C1FF0520EB
:1005640000F09EFA0F20FFF7BBFF052000F098FA79
:100574000620FFF7B5FF052000F092FA00BF80BD0A
:1005840080B584B000AF03460A46FB711346BB71C5
:100594000E4B1B68FB60BB79012B01D90123BB7196
:1005A400BB7907F11002134413F8042CFB791344AC
:1005B400DBB25BB263F07F035BB2DBB21846FFF7DA
:1005C4008FFF00BF1037BD4680BD00BF983B0008B9
:1005D40080B582B000AF786006E07B685A1C7A6010
:1005E4001B781846FFF796FF7B681B78002BF4D125
:1005F40000BF0837BD4680BD80B500AF00F0DEF90E
:1006040000F01AF800F0A6F800F076F8FFF79CFF67
:1006140000210020FFF7B4FF0548FFF7D9FF0121AF
:100624000020FFF7ADFF0348FFF7D2FFFEE700BF4E
:100634009C3B0008AC3B000880B594B000AF07F1C8
:10064400200330220021184603F090FA07F10C032E
:1006540000221A605A609A60DA601A610023BB6053
:10066400234A234B1B6C43F080531364204B1B6CB5
:1006740003F08053BB60BB6800237B601D4A1D4BA5
:100684001B6823F4404343F400431360194B1B6875
:1006940003F440437B607B6802233B620123FB62DB
:1006A40010233B630023BB6307F12003184602F0C9
:1006B400DBFD0346002B01D000F0ACF80F23FB60F8
:1006C40000233B6100237B610023BB610023FB61AA
:1006D40007F10C030021184603F03EF80346002BF3
:1006E40001D000F097F800BF5037BD4680BD00BF71
:1006F400003802400070004080B500AF124B134A2E
:100704001A60114B124A5A600F4B00229A600E4B2A
:100714000022DA600C4B4FF480421A610A4B00222B
:100724005A61094B00229A61074B0022DA61064B99
:1007340000221A62044800F0B1FC0346002B01D0E9
:1007440000F068F800BF80BD28000020005400407D
:100754007011010080B588B000AF07F10C030022CE
:100764001A605A609A60DA601A610023BB60264AF4
:10077400254B1B6B43F004031363234B1B6B03F0E8
:100784000403BB60BB6800237B601F4A1E4B1B6BCA
:1007940043F0010313631C4B1B6B03F001037B60E9
:1007A4007B6800233B60184A174B1B6B43F0020322
:1007B4001363154B1B6B03F002033B603B68012280
:1007C4002021124800F050FC4FF40053FB604FF41A
:1007D40004133B6100237B6107F10C0319460C48A9
:1007E40000F0C0FA2023FB6001233B6100237B61FE
:1007F4000023BB6107F10C031946044800F0B2FA68
:1008040000BF2037BD4680BD0038024000000240D2
:100814000008024080B400AF72B6FEE780B483B033
:1008240000AF00237B60104A0F4B5B6C43F48043A2
:1008340053640D4B5B6C03F480437B607B68002343
:100844003B60094A084B1B6C43F080531364064B0E
:100854001B6C03F080533B603B6800BF0C37BD4604
:100864005DF8047B704700BF0038024080B58AB051
:1008740000AF786007F1140300221A605A609A608E
:10088400DA601A617B681B68214A93423CD10023D9
:100894003B61204A1F4B1B6B43F0020313631D4B48
:1008A4001B6B03F002033B613B694FF440737B61B4
:1008B4001223BB610023FB6103233B6204237B629D
:1008C40007F114031946144800F04CFA0023FB60A6
:1008D400104A104B1B6C43F4001313640D4B1B6C38
:1008E40003F40013FB60FB68002201211F2000F0C9
:1008F400D2F91F2000F0EBF900220121202000F0A2
:10090400CAF9202000F0E3F900BF2837BD4680BDB6
:1009140000540040003802400004024080B400AF9C
:10092400FEE780B400AFFEE780B400AFFEE780B41A
:1009340000AFFEE780B400AFFEE780B400AF00BFB5
:10094400BD465DF8047B704780B400AF00BFBD4670
:100954005DF8047B704780B400AF00BFBD465DF80E
:10096400047B704780B500AF00F07AF800BF80BD0B
:1009740080B500AF024800F0C7FD00BF80BD00BFD6
:100984002800002080B500AF024800F010FF00BF2F
:1009940080BD00BF2800002080B400AF064A064B8B
:1009A400D3F8883043F47003C2F8883000BFBD46E2
:1009B4005DF8047B704700BF00ED00E080B500AF38
:1009C4000E4A0E4B1B6843F4007313600B4A0B4B27
:1009D4001B6843F480631360084A084B1B6843F4A4
:1009E40080731360032000F04BF90F2000F008F827
:1009F400FFF714FF0023184680BD00BF003C0240EF
:100A040080B582B000AF7860124B1A68124B1B7825
:100A140019464FF47A73B3FBF1F3B2FBF3F31846C0
:100A240000F063F90346002B01D001230EE07B683C
:100A34000F2B0AD8002279684FF0FF3000F02BF911
:100A4400064A7B681360002300E001231846083738
:100A5400BD4680BD000000200800002004000020E6
:100A640080B400AF064B1B781A46064B1B68134430
:100A7400044A136000BFBD465DF8047B704700BFA5
:100A8400080000207C00002080B400AF034B1B68EA
:100A94001846BD465DF8047B704700BF7C0000200B
:100AA40080B584B000AF7860FFF7EEFFB8607B6874
:100AB400FB60FB68B3F1FF3F05D0094B1B781A4676
:100AC400FB681344FB6000BFFFF7DEFF0246BB6810
:100AD400D21AFB689A42F7D300BF1037BD4680BDD7
:100AE4000800002080B485B000AF78607B6803F014
:100AF4000703FB600C4BDB68BB60BA684FF6FF036F
:100B04001340BB60FB681A02BB68134343F0BF6326
:100B140043F40033BB60044ABB68D36000BF14379E
:100B2400BD465DF8047B704700ED00E080B400AF83
:100B3400044BDB681B0A03F007031846BD465DF847
:100B4400047B704700ED00E080B483B000AF03463F
:100B5400FB7197F90730002B0BDB094997F9073034
:100B64005B09FA7902F01F02012000FA02F241F84F
:100B7400232000BF0C37BD465DF8047B704700BFDF
:100B840000E100E080B483B000AF03463960FB713C
:100B940097F90730002B0ADB0D4997F907303A68BB
:100BA400D2B21201D2B20B4483F800230AE00949FD
:100BB400FB7903F00F03043B3A68D2B21201D2B2BC
:100BC4000B441A7600BF0C37BD465DF8047B7047B2
:100BD40000E100E000ED00E080B489B000AFF8600F
:100BE400B9607A60FB6803F00703FB61FB69C3F13A
:100BF4000703042B28BF0423BB61FB690433062BC2
:100C040002D9FB69033B00E000237B610122BB693D
:100C140002FA03F35A1EBB681A407B699A40012109
:100C24007B6901FA03F3591E7B680B401343184692
:100C34002437BD465DF8047B7047000080B582B060
:100C440000AF78607B68013BB3F1807F01D301235F
:100C54000FE00A4A7B68013B53600F214FF0FF30DD
:100C6400FFF790FF054B00229A60044B07221A609D
:100C7400002318460837BD4680BD00BF10E000E0E1
:100C840080B582B000AF78607868FFF72BFF00BFB3
:100C94000837BD4680BD80B586B000AF0346B96055
:100CA4007A60FB7300237B61FFF740FF78617A6809
:100CB400B9687869FFF790FF024697F90F3011463B
:100CC4001846FFF75FFF00BF1837BD4680BD80B5EB
:100CD40082B000AF0346FB7197F907301846FFF75F
:100CE40033FF00BF0837BD4680BD80B582B000AF7A
:100CF40078607868FFF7A2FF034618460837BD46B8
:100D040080BD80B483B000AF78607B6893F83530E1
:100D1400DBB2022B04D07B6880225A6501230CE0ED
:100D24007B68052283F835207B681B687A68126823
:100D3400126822F001021A60002318460C37BD46DF
:100D44005DF8047B704780B483B000AF78607B6843
:100D540093F83530DBB218460C37BD465DF8047B9A
:100D64007047000080B489B000AF78603960002318
:100D74007B6100233B610023BB610023FB6159E1DC
:100D84000122FB6902FA03F37B613B681A687B6901
:100D940013403B613A697B699A4240F048813B6861
:100DA4005B6803F00303012B05D03B685B6803F029
:100DB4000303022B30D17B689B68BB61FB695B003A
:100DC400032202FA03F3DB43BA691340BB613B68B5
:100DD400DA68FB695B0002FA03F3BA691343BB6187
:100DE4007B68BA699A607B685B68BB610122FB69B6
:100DF40002FA03F3DB43BA691340BB613B685B68E7
:100E04001B0903F00102FB6902FA03F3BA691343F5
:100E1400BB617B68BA695A603B685B6803F0030393
:100E2400032B17D07B68DB68BB61FB695B00032283
:100E340002FA03F3DB43BA691340BB613B689A6867
:100E4400FB695B0002FA03F3BA691343BB617B6875
:100E5400BA69DA603B685B6803F00303022B23D1B1
:100E6400FB69DA087B68083253F82230BB61FB69FE
:100E740003F007039B000F2202FA03F3DB43BA6972
:100E84001340BB613B681A69FB6903F007039B00CD
:100E940002FA03F3BA691343BB61FB69DA087B689E
:100EA4000832B96943F822107B681B68BB61FB698F
:100EB4005B00032202FA03F3DB43BA691340BB610C
:100EC4003B685B6803F00302FB695B0002FA03F30F
:100ED400BA691343BB617B68BA691A603B685B6893
:100EE40003F44033002B00F0A2800023FB60564A39
:100EF400554B5B6C43F480435364534B5B6C03F47A
:100F04008043FB60FB68514AFB699B08023352F83B
:100F14002330BB61FB6903F003039B000F2202FA39
:100F240003F3DB43BA691340BB617B68484A9342CD
:100F340019D07B68474A934213D07B68464A934250
:100F44000DD07B68454A934207D07B68444A93425C
:100F540001D1042308E0072306E0032304E002236D
:100F640002E0012300E00023FA6902F00302920088
:100F74009340BA691343BB613449FB699B0802334C
:100F8400BA6941F82320374B1B68BB613B69DB43DB
:100F9400BA691340BB613B685B6803F48033002B80
:100FA40003D0BA693B691343BB612E4ABB69136022
:100FB4002C4B5B68BB613B69DB43BA691340BB6183
:100FC4003B685B6803F40033002B03D0BA693B69C8
:100FD4001343BB61234ABB695360224B9B68BB61CB
:100FE4003B69DB43BA691340BB613B685B6803F44C
:100FF4008013002B03D0BA693B691343BB61194AC0
:10100400BB699360174BDB68BB613B69DB43BA691F
:101014001340BB613B685B6803F40013002B03D0EF
:10102400BA693B691343BB610E4ABB69D360FB6970
:101034000133FB61FB690F2B7FF6A2AE00BF24379F
:10104400BD465DF8047B704700380240003801401B
:10105400000002400004024000080240000C02406C
:1010640000100240003C014080B483B000AF7860BF
:101074000B467B8013467B707B78002B03D07A88E9
:101084007B689A6103E07B881A047B689A6100BFDD
:101094000C37BD465DF8047B7047000090B585B001
:1010A40000AF78607B68002B01D101231FE17B68CE
:1010B40093F83D30DBB2002B06D17B68002283F825
:1010C4003C207868FFF7D2FB7B68242283F83D201C
:1010D4007B681B687A681268126822F001021A6041
:1010E4007B681B687A681268126842F400421A60CE
:1010F4007B681B687A681268126822F400421A60DE
:1011040002F0D2FCF8607B685B687B4A934207D8A4
:10111400FB687A4A934294BF01230023DBB206E0C2
:10112400FB68774A934294BF01230023DBB2002B70
:1011340001D00123DBE0FB68724AA2FB03239B0C72
:10114400BB607B681B687A681268526822F03F01B2
:10115400BA680A435A607B681A687B681B681B6A12
:1011640023F03F017B685B686348834202D8BB6815
:10117400013309E0BB684FF4967000FB03F3624847
:10118400A0FB03039B0901330B4313627B681868BC
:101194007B681B68DB6923F44F4222F0FF027B6803
:1011A4005B6855498B420DD8FB68591E7B685B68A8
:1011B4005B00B1FBF3F30133C3F30B03042B38BF20
:1011C40004234FE07B689B68002B11D1FB685C1EF5
:1011D4007B6859680B465B000B44B4FBF3F30133A3
:1011E400C3F30B03002B0CBF01230023DBB212E07B
:1011F400FB685C1E7B6859680B469B000B44990096
:101204000B44B4FBF3F30133C3F30B03002B0CBF08
:1012140001230023DBB2002B01D0012322E07B68F1
:101224009B68002B0ED1FB685C1E7B6859680B46DB
:101234005B000B44B4FBF3F30133C3F30B0343F43C
:1012440000430FE0FB685C1E7B6859680B469B00FB
:101254000B4499000B44B4FBF3F30133C3F30B03C6
:1012640043F440431343C3617B681B687A68126884
:10127400126822F0C0017A68D0697A68126A02435F
:101284000A431A607B681A687B681B689B6823F4AE
:10129400034323F0FF03796808697968C968014347
:1012A4000B4393607B681B687A681268D26822F0EB
:1012B400FF017A6850697A68926902430A43DA60E6
:1012C4007B681B687A681268126842F001021A602F
:1012D4007B6800221A647B68202283F83D207B68A7
:1012E40000221A637B68002283F83E2000231846FC
:1012F4001437BD4690BD00BFA08601007F841E0048
:10130400FF083D0083DE1B43D34D621080B588B0D7
:1013140002AFF8607A601A460B467B8113463B8124
:10132400FFF7B2FB7861FB6893F83D30DBB2202B0A
:1013340040F0E0807B690093192301227049F8682A
:1013440001F0BEFD0346002B01D00223D3E0FB686D
:1013540093F83C30012B01D10223CCE0FB6801223D
:1013640083F83C20FB681B681B6803F00103012B16
:1013740007D0FB681B68FA681268126842F0010221
:101384001A60FB681B68FA681268126822F400622B
:101394001A60FB68212283F83D20FB68102283F841
:1013A4003E20FB6800221A64FB687A685A62FB6874
:1013B4003A895A85FB685B8D9AB2FB681A85FB688B
:1013C400504ADA6279897B693A6AF86801F04EFC1E
:1013D4000346002B01D001238DE000233B61FB6811
:1013E4001B685B693B61FB681B689B693B613B69EC
:1013F40066E07A69396AF86801F038FE0346002B22
:101404000DD0FB681B6C042B07D1FB681B68FA68C2
:101414001268126842F400721A6001236BE0FB68E0
:101424001B68FA68526A12781A61FB685B6A5A1C74
:10143400FB685A62FB685B8D9BB2013B9AB2FB6806
:101444005A85FB681B8D013B9AB2FB681A85FB68C1
:101454001B685B6903F00403042B1BD1FB681B8D21
:10146400002B17D0FB681B68FA68526A12781A615D
:10147400FB685B6A5A1CFB685A62FB685B8D9BB213
:10148400013B9AB2FB685A85FB681B8D013B9AB2FB
:10149400FB681A857A69396AF86801F028FE034600
:1014A400002B0DD0FB681B6C042B07D1FB681B6859
:1014B400FA681268126842F400721A6001231AE092
:1014C400FB681B8D002B94D1FB681B68FA681268BB
:1014D400126842F400721A60FB68202283F83D20EF
:1014E400FB68002283F83E20FB68002283F83C203E
:1014F400002300E0022318461837BD4680BD00BF14
:10150400020010000000FFFF80B588B000AF7860D3
:101514000023BB617B681B685B687B617B68DB6A5B
:101524003B617B6893F83E30FB737B6893F83D30F6
:10153400BB73FB7B102B03D0FB7B402B40F0B180B3
:101544007B681B689B69BB617B681B685B69FB618B
:10155400FB6903F00103002B0DD13B69B3F52A0F9E
:1015640003D03B69B3F12A4F01D1012300E00023EA
:10157400012B00F01481FB6903F00103002B0BD055
:101584007B6903F40073002B06D0786801F051FEE8
:10159400786800F054FD83E0FB6903F00803002B36
:1015A40008D07B6903F40073002B03D0786800F043
:1015B400CAFD75E0FB6903F00203002B08D07B69C8
:1015C40003F40073002B03D0786800F0E6FD67E0B5
:1015D400BB6903F00403002B36D07B681B685B688F
:1015E40003F40063B3F5006F00F0DB80FB6903F0E4
:1015F4008003002B0DD07B6903F48063002B08D09B
:10160400FB6903F00403002B03D1786800F0D6F9DA
:1016140046E0FB6903F00403002B00F0C2807B6901
:1016240003F40073002B00F0BC80BB7B212B03D19F
:10163400786800F05FFAB4E0FB7B402B40F0B180A7
:10164400786800F0CDFAACE07B681B685B6803F453
:101654000063B3F5006F00F0A480FB6903F040035E
:10166400002B0DD07B6903F48063002B08D0FB6949
:1016740003F00403002B03D1786800F045FB0FE06E
:10168400FB6903F00403002B00F08B807B6903F4F7
:101694000073002B00F08580786800F0E6FB80E0A2
:1016A4007FE07B681B6C002B04D07B681B685B6944
:1016B400FB6107E07B681B689B69BB617B681B68F7
:1016C4005B69FB61FB6903F00203002B11D07B69AA
:1016D40003F40073002B0CD07B681B6C002B03D02D
:1016E4007B681B689B69BB61B969786800F0A4FFDB
:1016F4005AE0FB6903F01003002B08D07B6903F464
:101704000073002B03D0786800F0DEFF4CE0BB7B55
:10171400212B02D0BB7B292B20D1FB6903F0800352
:10172400002B0DD07B6903F48063002B08D0FB6988
:1017340003F00403002B03D1786800F0BFFE32E00D
:10174400FB6903F00403002B2DD07B6903F40073C1
:10175400002B28D0786800F0EEFE24E0FB6903F04B
:101764004003002B0DD07B6903F48063002B08D069
:10177400FB6903F00403002B03D1786800F0FCFE3E
:1017840012E0FB6903F00403002B0DD07B6903F422
:101794000073002B08D0786800F02CFF04E000BF31
:1017A40002E000BF00E000BF2037BD4680BD80B529
:1017B4008AB000AF78607B681B685B693B627B68BA
:1017C4001B685B68FB6100237B627B6893F83E3097
:1017D400FB763B6A03F48073002B0DD0FB6903F4A2
:1017E4008073002B08D07B6A43F001037B627B6823
:1017F4001B686FF480725A613B6A03F40073002B18
:101804000DD0FB6903F48073002B08D07B6A43F08E
:1018140002037B627B681B686FF400725A613B6A47
:1018240003F48063002B3ED0FB6903F48073002B28
:1018340039D0FB7EBB767B685B8D9BB27B617B681A
:1018440093F83D30FB747B681B6BFB60BB7E202BE5
:1018540012D17B69002B0FD1FB7C212B08D0FB7CA0
:10186400292B05D0FB7C282B06D1FB68212B03D127
:10187400786801F059F816E07B681B686FF48062A1
:101884005A617B6A43F004037B62FB7E102B02D017
:10189400FB7E402B07D17B681B687A68126812684C
:1018A40042F400721A603B6A03F40063002B0DD00B
:1018B400FB6903F48073002B08D07B6A43F00803B0
:1018C4007B627B681B686FF400625A617B6A002B41
:1018D40008D07B681A6C7B6A1A437B681A64786840
:1018E40001F092F800BF2837BD4680BD80B483B0B4
:1018F40000AF786000BF0C37BD465DF8047B7047CD
:1019040080B483B000AF786000BF0C37BD465DF88B
:10191400047B704780B483B000AF786000BF0C379D
:10192400BD465DF8047B704780B483B000AF786037
:1019340000BF0C37BD465DF8047B704780B483B0AC
:1019440000AF78600B46FB7013463B8000BF0C373A
:10195400BD465DF8047B704780B483B000AF786007
:1019640000BF0C37BD465DF8047B704780B483B07C
:1019740000AF786000BF0C37BD465DF8047B70474C
:1019840080B483B000AF786000BF0C37BD465DF80B
:10199400047B704780B483B000AF786000BF0C371D
:1019A400BD465DF8047B704780B483B000AF7860B7
:1019B40000BF0C37BD465DF8047B704780B584B02A
:1019C40000AF78607B6893F83D30FB737B6893F8D5
:1019D4003E30BB737B68DB6ABB607B681B8D002B6E
:1019E40050D1FB7B212B4DD1BB68082B1DD0BB688C
:1019F400202B1AD0BB6813F5803F16D07B681B6878
:101A04007A681268526822F4E0625A607B68112294
:101A14001A637B68002283F83E207B68202283F8C7
:101A24003D207868FFF762FF60E07B681B687A6896
:101A34001268526822F4E0625A607B681B687A6814
:101A44001268126842F400721A607B6800221A63FA
:101A54007B68202283F83D207B6893F83E30DBB21C
:101A6400402B07D17B68002283F83E207868FFF77B
:101A74007DFF3BE07B68002283F83E207868FFF717
:101A840035FF33E0FB7B212B05D0BB7B402B2DD1D5
:101A9400FB7B222B2AD17B685B8D9BB2002B08D168
:101AA4007B681B687A681268526822F480625A6004
:101AB4001CE07B6893F83E30DBB2402B03D178689E
:101AC40000F08EF812E07B681B687A68526A12781C
:101AD4001A617B685B6A5A1C7B685A627B685B8DFF
:101AE4009BB2013B9AB27B685A85FFE700BF10376F
:101AF400BD4680BD80B584B000AF78607B68DB6A8A
:101B0400FB607B6893F83D30DBB2212B64D17B68AA
:101B14005B8D9BB2002B12D07B681B687A68526A7B
:101B240012781A617B685B6A5A1C7B685A627B680C
:101B34005B8D9BB2013B9AB27B685A854CE0FB6893
:101B4400082B1DD0FB68202B1AD0FB6813F5803FAF
:101B540016D07B681B687A681268526822F4E062C7
:101B64005A607B6811221A637B68002283F83E2046
:101B74007B68202283F83D207868FFF7B7FE2BE0CE
:101B84007B681B687A681268526822F4E0625A60C3
:101B94007B681B687A681268126842F400721A60E3
:101BA4007B6800221A637B68202283F83D207B68CF
:101BB40093F83E30DBB2402B07D17B68002283F8D8
:101BC4003E207868FFF7D2FE06E07B68002283F8A7
:101BD4003E207868FFF78AFE00BF1037BD4680BDFF
:101BE40080B584B000AF78607B6893F83D30FB73B8
:101BF4007B681B6D002B1DD17B68DB6C012B0BD12B
:101C04007B681B687A68926CD2B21A617B681B6D20
:101C14009A1C7B681A6573E07B681B687A68926C0F
:101C240092B21212D2B21A617B681B6D5A1C7B6885
:101C34001A6565E07B681B6D012B0BD17B681B6803
:101C44007A68926CD2B21A617B681B6D5A1C7B68ED
:101C54001A6555E07B681B6D022B51D1FB7B222B4F
:101C64000DD17B681B687A681268126842F480722E
:101C74001A607B681B6D5A1C7B681A6540E07B68A0
:101C84005B8D9BB2002B15D0FB7B212B12D17B6883
:101C94001B687A68526A12781A617B685B6A5A1CFC
:101CA4007B685A627B685B8D9BB2013B9AB27B680E
:101CB4005A8525E07B685B8D9BB2002B20D1FB7B92
:101CC400212B1DD17B681B687A681268526822F444
:101CD400E0625A607B681B687A681268126842F492
:101CE40000721A607B6800221A637B68202283F8E2
:101CF4003D207B68002283F83E207868FFF736FE9B
:101D040000BF1037BD4680BD80B584B000AF786099
:101D14007B6893F83D30DBB2222B40F0A2807B68D5
:101D24005B8D9BB2FB60FB68032B21D97B685B6AEC
:101D34007A6812681269D2B21A707B685B6A5A1C9C
:101D44007B685A627B685B8D9BB2013B9AB27B686D
:101D54005A857B685B8D9BB2032B40F082807B6845
:101D64001B687A681268526822F480625A6078E0CC
:101D74007B68DB6A022B74D0FB68012B02D0FB6802
:101D8400002B6ED1786801F0F3F90346002B42D1A1
:101D94007B681B687A681268126822F480621A6091
:101DA4007B681B687A681268526822F4E0625A60A1
:101DB4007B685B6A7A6812681269D2B21A707B68AF
:101DC4005B6A5A1C7B685A627B685B8D9BB2013BE1
:101DD4009AB27B685A857B68202283F83D207B6811
:101DE40093F83E30DBB2402B0AD17B68002283F8A3
:101DF4003E207B6800221A637868FFF7C1FD30E05B
:101E04007B68002283F83E207B6812221A6378687C
:101E1400FFF776FD25E07B681B687A6812685268D4
:101E240022F4E0625A607B685B6A7A68126812691D
:101E3400D2B21A707B685B6A5A1C7B685A627B68F0
:101E44005B8D9BB2013B9AB27B685A857B682022EA
:101E540083F83D207B68002283F83E207868FFF7F2
:101E640099FD00BF1037BD4680BD80B584B000AF7A
:101E740078607B68DB6AFB607B685B8D9BB2042BBC
:101E84001BD17B681B687A681268526822F48062EE
:101E94005A607B685B6A7A6812681269D2B21A70F7
:101EA4007B685B6A5A1C7B685A627B685B8D9BB259
:101EB400013B9AB27B685A85BDE07B685B8D9BB21F
:101EC400032B29D17B681B687A681268526822F454
:101ED40080625A60FB68042B0AD0FB68022B07D08F
:101EE4007B681B687A681268126822F480621A6040
:101EF4007B685B6A7A6812681269D2B21A707B686E
:101F04005B6A5A1C7B685A627B685B8D9BB2013B9F
:101F14009AB27B685A858EE07B685B8D9BB2022BFC
:101F240076D1FB68012B02D0FB68102B08D17B68AB
:101F34001B687A681268126822F480621A6019E0D9
:101F4400FB68042B02D0FB68022B08D17B681B685A
:101F54007A681268126842F480621A600AE0FB68C8
:101F6400102B07D07B681B687A681268126842F4E9
:101F740000721A607B685B6A7A6812681269D2B26E
:101F84001A707B685B6A5A1C7B685A627B685B8D3B
:101F94009BB2013B9AB27B685A857B685B6A7A681C
:101FA40012681269D2B21A707B685B6A5A1C7B6829
:101FB4005A627B685B8D9BB2013B9AB27B685A85FF
:101FC4007B681B687A681268526822F440725A600F
:101FD4007B68202283F83D207B6893F83E30DBB297
:101FE400402B0AD17B68002283F83E207B680022C4
:101FF4001A637868FFF7C4FC1DE07B68002283F84D
:102004003E207B6812221A637868FFF779FC12E09D
:102014007B685B6A7A6812681269D2B21A707B684C
:102024005B6A5A1C7B685A627B685B8D9BB2013B7E
:102034009AB27B685A8500BF1037BD4680BD80B414
:1020440083B000AF78607B6893F83E30DBB2402BFE
:1020540016D17B681B6D002B08D17B681B687A68DE
:10206400526CD2B202F0FE021A6166E07B681B6811
:102074007A68526CD2B242F00102D2B21A615CE0C8
:102084007B681B69B3F5804F32D17B6893F83D3090
:10209400DBB2212B08D17B681B687A68526CD2B200
:1020A40002F0FE021A6108E07B681B687A68526CD1
:1020B400D2B242F00102D2B21A617B685B6B002B90
:1020C40004D07B685B6BDB6B002B08D17B689B6B5C
:1020D400002B32D07B689B6BDB6B002B2DD07B6895
:1020E4001B687A681268526842F400625A6024E0FD
:1020F4007B681B6D002B0ED17B681B687A68526C61
:1021040092B2D211D2B202F00602D2B262F00F023F
:10211400D2B21A6111E07B681B6D012B0DD17B6873
:102124001B687A68526C92B2D211D2B202F00602E3
:10213400D2B262F00E02D2B21A6100BF0C37BD46B1
:102144005DF8047B704780B483B000AF78607B682F
:102154001B687A68526CD2B21A617B685B6B002B85
:1021640004D07B685B6BDB6B002B08D17B689B6BBB
:10217400002B0CD07B689B6BDB6B002B07D07B6840
:102184001B687A681268526842F400625A6000BFA1
:102194000C37BD465DF8047B704780B491B000AF46
:1021A40078607B6893F83E3087F83F307B68DB6A61
:1021B400BB637B681B6B7B637B6893F83D30DBB24E
:1021C400222B40F069817B681B6D002B0FD197F89F
:1021D4003F30402B0BD100233B637B681B685B695A
:1021E4003B637B681B689B693B633B6B60E17B687B
:1021F4001B6D002B1DD17B681B69B3F5404F18D1B3
:102204000023FB627B681B685B69FB627B681B685D
:102214009B69FB62FB6A7B681B687A6812681268B8
:1022240042F480721A607B681B6D5A1C7B681A65C5
:102234003EE17B685B8D9BB2002B13D10023BB6214
:102244007B681B685B69BB627B681B689B69BB62BC
:10225400BB6A7B681B687A681268126842F4007271
:102264001A6015E17B685B8D9BB2012B40F08A807C
:10227400BB6B13F5803F37D17B681B687A681268A3
:10228400126822F480621A607B681B685B6803F43E
:102294000063B3F5006F13D17B681B687A6812681A
:1022A400126822F480621A6000237B627B681B68D8
:1022B4005B697B627B681B689B697B627B6AE7E086
:1022C40000233B627B681B685B693B627B681B681D
:1022D4009B693B623B6A7B681B687A681268126878
:1022E40042F400721A60D3E0BB6B082B2ED0BB6B98
:1022F400202B2BD07B6B122B02D1BB6B012B25D156
:10230400BB6B042B0ED0BB6B022B0BD0BB6B102B07
:1023140008D07B681B687A681268126822F48062AD
:102324001A6007E07B681B687A681268126842F4D6
:1023340080621A600023FB617B681B685B69FB6138
:102344007B681B689B69FB61FB69A1E07B681B6878
:102354007A681268126822F480621A600023BB61F2
:102364007B681B685B69BB617B681B689B69BB619D
:10237400BB697B681B687A681268126842F4007251
:102384001A6085E07B685B8D9BB2022B4DD1BB6BE1
:10239400042B16D0BB6B022B13D0BB6B102B10D0AD
:1023A4007B681B687A681268126822F480621A607B
:1023B4007B681B687A681268126842F400621A60CB
:1023C40007E07B681B687A681268126842F48062CE
:1023D4001A607B681B685B6803F40063B3F5006FE5
:1023E40017D1BB6B13F5803F0BD0BB6B012B08D00F
:1023F400BB6B082B05D0BB6B102B02D0BB6B202B07
:1024040007D17B681B687A681268526842F480526C
:102414005A6000237B617B681B685B697B617B6816
:102424001B689B697B617B6932E07B681B687A6807
:102434001268126842F480621A607B681B685B68E9
:1024440003F40063B3F5006F17D1BB6B13F5803F42
:102454000BD0BB6B012B08D0BB6B082B05D0BB6B1F
:10246400102B02D0BB6B202B07D17B681B687A68CA
:102474001268526842F480525A6000233B617B68C0
:102484001B685B693B617B681B689B693B613B69BB
:102494007B6800221A650BE00023FB607B681B68E5
:1024A4005B69FB607B681B689B69FB60FB68FFE7FB
:1024B40000BF4437BD465DF8047B704780B584B0E7
:1024C40000AF78607B6893F83D30FB737B685B8D6D
:1024D4009BB2002B2BD07B681B687A68526A1278F7
:1024E4001A617B685B6A5A1C7B685A627B685B8DE5
:1024F4009BB2013B9AB27B685A857B685B8D9BB229
:10250400002B14D1FB7B292B11D17B681B687A68C3
:102514001268526822F480625A607B6821221A632E
:102524007B68282283F83D207868FFF7F3F900BF21
:102534001037BD4680BD80B483B000AF78607B683F
:102544005B8D9BB2002B11D07B681B687A68526A42
:1025540012781A617B685B6A5A1C7B685A627B68D2
:102564005B8D9BB2013B9AB27B685A8500BF0C37E6
:10257400BD465DF8047B704780B584B000AF7860D9
:102584007B6893F83D30FB737B685B8D9BB2002BBB
:102594002CD07B685B6A7A6812681269D2B21A70AE
:1025A4007B685B6A5A1C7B685A627B685B8D9BB252
:1025B400013B9AB27B685A857B685B8D9BB2002B8A
:1025C40014D1FB7B2A2B11D17B681B687A681268B3
:1025D400526822F480625A607B6822221A637B6804
:1025E400282283F83D207868FFF79EF900BF103752
:1025F400BD4680BD80B483B000AF78607B685B8DDE
:102604009BB2002B12D07B685B6A7A6812681269ED
:10261400D2B21A707B685B6A5A1C7B685A627B6808
:102624005B8D9BB2013B9AB27B685A8500BF0C3725
:10263400BD465DF8047B704780B584B000AF786018
:1026440039600023FB737B6893F83D30DBB203F001
:102654002803282B25D17B681B687A681268526886
:1026640022F480625A603B6803F00403002B01D11A
:102674000123FB733B6803F08003002B03D17B68C9
:10268400DB68BB8102E07B689B69BB817B680022BD
:1026940083F83C20BA89FB7B19467868FFF74EF92A
:1026A4000EE00023BB607B681B685B69BB607B68D2
:1026B4001B689B69BB60BB687B68002283F83C2075
:1026C40000BF1037BD4680BD80B584B000AF7860D0
:1026D4007B6893F83D30FB737B681B687A681268EB
:1026E400526822F4E0625A600023BB607B681B6876
:1026F4005B69BB607B681B687A681268126842F089
:1027040001021A60BB687B681B687A6812681268E9
:1027140022F480621A607B681B685B6803F40063C0
:10272400B3F5006F72D1FB7B222B02D0FB7B2A2BEB
:1027340035D17B689B6B1B685B689AB27B685A8552
:102744007B685B8D9BB2002B05D07B681B6C43F0D0
:1027540004027B681A647B681B687A681268526892
:1027640022F400625A607B689B6B1846FEF7EBFA12
:102774000346012B49D07B689B6B694A1A657B68C9
:102784009B6B1846FEF7BDFA0346002B3DD07B68D1
:102794009B6B1B6D7A68926B1046984735E07B689B
:1027A4005B6B1B685B689AB27B685A857B685B8D40
:1027B4009BB2002B05D07B681B6C43F004027B6842
:1027C4001A647B681B687A681268526822F4006293
:1027D4005A607B685B6B1846FEF7B5FA0346012B1B
:1027E40014D07B685B6B4E4A1A657B685B6B18463A
:1027F400FEF787FA0346002B08D07B685B6B1B6DE2
:102804007A68526B1046984700E000BF7B685B8D86
:102814009BB2002B3ED07B681B685B6903F004030A
:10282400042B12D17B685B6A7A6812681269D2B28F
:102834001A707B685B6A5A1C7B685A627B685B8D82
:102844009BB2013B9AB27B685A857B681B685B69C3
:1028540003F04003402B12D17B685B6A7A681268EC
:102864001269D2B21A707B685B6A5A1C7B685A621E
:102874007B685B8D9BB2013B9AB27B685A857B680F
:102884005B8D9BB2002B05D07B681B6C43F004026C
:102894007B681A647B681B6C002B03D0786800F09B
:1028A400B3F839E0FB7B2A2B09D17B6800221A6339
:1028B4007B68282283F83D207868FFF735F87B6829
:1028C40093F83D30DBB2282B11D17B68154ADA62CC
:1028D4007B6800221A637B68202283F83D207B6892
:1028E400002283F83E207868FFF736F814E07B680E
:1028F4001B6B222B02D0FB7B222B0DD17B68002289
:102904001A637B68202283F83D207B68002283F8C9
:102914003E207868FFF708F800BF1037BD4680BD39
:10292400752D00080000FFFF80B584B000AF78600B
:102934007B6893F83D30FB737B68DB6ABB60BB68E4
:10294400082B02D0BB68202B29D1FB7B282B26D156
:102954007B682C4ADA627B681B687A681268526862
:1029640022F4E0625A607B681B686FF480625A61EB
:102974007B681B687A681268126822F480621A60A5
:102984007B6800221A637B68202283F83D207B68E1
:10299400002283F83E207868FEF7DEFF2EE0FB7B02
:1029A400212B26D17B68174ADA627B6821221A63BD
:1029B4007B68202283F83D207B68002283F83E2038
:1029C4007B681B687A681268526822F4E0625A6075
:1029D4007B681B686FF480625A617B681B687A6845
:1029E4001268126822F480621A607868FEF792FF17
:1029F40004E07B681B686FF480625A6100BF103783
:102A0400BD4680BD0000FFFF80B584B000AF786094
:102A14007B6893F83D30FB737B6893F83E30BB735F
:102A2400BB7B102B02D0BB7B402B0AD1FB7B222B20
:102A340007D17B681B687A681268126822F4006206
:102A44001A60FB7B03F02803282B07D17B68002244
:102A54001A637B68282283F83D2015E07B681B6895
:102A64005B6803F40063B3F5006F0AD0FB7B602B53
:102A740007D07B68202283F83D207B68002283F8FE
:102A84003E207B6800221A637B681B685B6803F442
:102A94000063B3F5006F62D17B681B687A681268C3
:102AA400526822F400625A607B685B6B93F835309D
:102AB400DBB2012B20D07B685B6B6A4A1A657B68AA
:102AC4005B6B1846FEF71DF90346002B00F0898066
:102AD4007B681B687A681268126822F001021A6027
:102AE4007B68202283F83D207B685B6B1B6D7A68D2
:102AF400526B1046984774E07B689B6B594A1A6581
:102B04007B689B6B1846FEF7FCF80346002B68D0E5
:102B14007B681B685B6903F04003402B0BD17B6827
:102B24005B6A7A6812681269D2B21A707B685B6A4F
:102B34005A1C7B685A627B681B687A681268126840
:102B440022F001021A607B68202283F83D207B6812
:102B54009B6B1B6D7A68926B1046984741E07B68CB
:102B640093F83D30DBB2602B25D17B68202283F8BB
:102B74003D207B6800221A647B681B685B6903F054
:102B84004003402B0BD17B685B6A7A681268126938
:102B9400D2B21A707B685B6A5A1C7B685A627B6883
:102BA4001B687A681268126822F001021A60786859
:102BB400FEF7FAFE15E07B681B685B6903F04003CF
:102BC400402B0BD17B685B6A7A6812681269D2B2B7
:102BD4001A707B685B6A5A1C7B685A627868FEF7D5
:102BE400D9FE7B681B6CBB60BB6803F00103002B40
:102BF4000ED1BB6803F00203002B09D1BB6803F0BC
:102C04000403002B04D1BB6803F00803002B07D096
:102C14007B681B687A681268526822F4E0625A6022
:102C24007B6893F83D30FB737B681B6C03F00403F3
:102C3400042B13D1FB7B282B10D17B680A4ADA6260
:102C44007B6800221A637B68202283F83D207B681E
:102C5400002283F83E207868FEF77EFE00BF10371E
:102C6400BD4680BD752D00080000FFFF80B588B00B
:102C740002AFF8607A603B600B467B81FB68DB6ADD
:102C84007B617B69082B06D07B69012B03D07B69B0
:102C940013F5803F08D1FB681B68FA681268126854
:102CA40042F480721A600BE0FB681B6B122B07D195
:102CB400FB681B68FA681268126842F480721A6032
:102CC4003B6800937B6800224FF00111F86800F024
:102CD400F7F80346002B0DD0FB681B681B6803F450
:102CE4008073B3F5807F03D1FB684FF400721A64DC
:102CF400032334E0FB681B69B3F5804F07D1FB68FD
:102D04001B687A89D2B202F0FE021A611BE0FB68EA
:102D14001B687A89D211D2B202F00602D2B262F0F2
:102D24000F02D2B21A613B687A680F49F86800F062
:102D34001EF90346002B01D0012310E0FB681B6839
:102D44007A89D2B21A613B687A680849F86800F057
:102D54000EF90346002B01D0012300E0002318469E
:102D64001837BD4680BD00BF080001000200010005
:102D740080B586B000AF78600023FB607B689B6BF6
:102D84007B617B6993F83D30FB744B4B1B68DB081C
:102D94004A4AA2FB03231A0A13469B001344DA008F
:102DA400D31AFB60FB68002B06D17B691B6C43F0D4
:102DB40020027B691A640AE0FB68013BFB607B69C3
:102DC4001B681B6803F40073B3F5007FEAD07B69CA
:102DD4005B6B002B03D07B695B6B0022DA637B693E
:102DE4009B6B002B03D07B699B6B0022DA637B69AE
:102DF4001B687A691268126822F480621A607B691F
:102E040000225A857B695B6B002B03D07B695B6B6B
:102E140000221A657B699B6B002B03D07B699B6B3B
:102E240000221A657B691B687A691268126822F0AD
:102E340001021A607B6993F83D30DBB2602B0ED13E
:102E44007B69202283F83D207B69002283F83E20A1
:102E54007B6900221A647869FEF7A6FD27E0FB7CF3
:102E640003F02803282B17D17B691B687A69126841
:102E7400126842F001021A607B691B687A69126861
:102E8400126842F480621A607B6900221A637B69CB
:102E9400282283F83D2007E07B69202283F83D2027
:102EA4007B69002283F83E207869FEF773FD00BF3A
:102EB4001837BD4680BD00BF0000002089B5F81456
:102EC40080B584B000AFF860B9603B601346FB7115
:102ED40025E03B68B3F1FF3F21D0FDF7D5FD024665
:102EE400BB69D21A3B689A4202D83B68002B16D1C0
:102EF400FB6800221A63FB68202283F83D20FB68EC
:102F0400002283F83E20FB681B6C43F02002FB6820
:102F14001A64FB68002283F83C20012323E0BB6889
:102F24001B0CDBB2012B0DD1FB681B685B69DA4318
:102F3400BB6813409BB2002B0CBF01230023DBB200
:102F44001A460CE0FB681B689B69DA43BB681340B4
:102F54009BB2002B0CBF01230023DBB21A46FB7982
:102F64009A42B6D0002318461037BD4680BD80B5BE
:102F740084B000AFF860B9607A603B6051E0FB68F0
:102F84001B685B6903F48063B3F5806F23D1FB682E
:102F94001B68FA681268126842F400721A60FB68CF
:102FA4001B686FF480625A61FB6800221A63FB6835
:102FB400202283F83D20FB68002283F83E20FB6832
:102FC4001B6C43F00402FB681A64FB68002283F85C
:102FD4003C20012346E07B68B3F1FF3F21D0FDF79D
:102FE40053FD02463B68D21A7B689A4202D87B683A
:102FF400002B16D1FB6800221A63FB68202283F899
:103004003D20FB68002283F83E20FB681B6C43F0E4
:103014002002FB681A64FB68002283F83C20012329
:1030240020E0BB681B0CDBB2012B0CD1FB681B68D6
:103034005B69DA43BB6813409BB2002B14BF0123C6
:103044000023DBB20BE0FB681B689B69DA43BB68B7
:1030540013409BB2002B14BF01230023DBB2002BCF
:103064008DD1002318461037BD4680BD80B584B08D
:1030740000AFF860B9607A602DE0F86800F0AAF853
:103084000346002B01D001232DE0BB68B3F1FF3FC1
:1030940021D0FDF7F9FC02467B68D21ABB689A423C
:1030A40002D8BB68002B16D1FB6800221A63FB68A8
:1030B400202283F83D20FB68002283F83E20FB6831
:1030C4001B6C43F02002FB681A64FB68002283F83F
:1030D4003C20012307E0FB681B685B6903F0800365
:1030E400802BCAD1002318461037BD4680BD80B559
:1030F40084B000AFF860B9607A602DE0F86800F041
:1031040069F80346002B01D001232DE0BB68B3F11D
:10311400FF3F21D0FDF7B8FC02467B68D21ABB689A
:103124009A4202D8BB68002B16D1FB6800221A63AE
:10313400FB68202283F83D20FB68002283F83E20B0
:10314400FB681B6C43F02002FB681A64FB680022D6
:1031540083F83C20012307E0FB681B685B6903F0EC
:103164000403042BCAD1002318461037BD4680BD82
:1031740080B485B000AF78600023FB60134B1B68FC
:10318400DB08134AA2FB03231A0A13469B001344C9
:10319400FB60FB68013BFB60FB68002B07D17B688D
:1031A4001B6C43F020027B681A64012308E07B68EF
:1031B4001B681B6803F40073B3F5007FE9D0002398
:1031C40018461437BD465DF8047B704700000020A4
:1031D40089B5F81480B483B000AF78607B681B684D
:1031E4005B6903F48063B3F5806F1BD17B681B6854
:1031F4006FF480625A617B6800221A637B68202224
:1032040083F83D207B68002283F83E207B681B6C9A
:1032140043F004027B681A647B68002283F83C2034
:10322400012300E0002318460C37BD465DF8047BFB
:10323400704780B483B000AF78607B68DB6AB3F515
:103244002A0F03D17B680122DA6207E07B68DB6A1C
:10325400B3F12A4F02D17B680822DA6200BF0C372F
:10326400BD465DF8047B704780B586B000AF7860DA
:103274007B68002B01D1012364E27B681B6803F0A7
:103284000103002B75D0A34B9B6803F00C03042BA4
:103294000CD0A04B9B6803F00C03082B12D19D4B60
:1032A4005B6803F48003B3F5800F0BD1994B1B6863
:1032B40003F40033002B5BD07B685B68002B57D191
:1032C40001233FE27B685B68B3F5803F06D1914AF6
:1032D400904B1B6843F4803313601DE07B685B688C
:1032E400B3F5A02F0CD18B4A8A4B1B6843F480237F
:1032F4001360884A874B1B6843F4803313600BE0E8
:10330400844A844B1B6823F480331360814A814BC5
:103314001B6823F4802313607B685B68002B13D045
:10332400FDF7B2FB386108E0FDF7AEFB02463B69EE
:10333400D31A642B01D9032304E2764B1B6803F4EC
:103344000033002BF0D014E0FDF79EFB386108E059
:10335400FDF79AFB02463B69D31A642B01D9032378
:10336400F0E16C4B1B6803F40033002BF0D100E058
:1033740000BF7B681B6803F00203002B63D0654B1E
:103384009B6803F00C03002B0BD0624B9B6803F08B
:103394000C03082B1CD15F4B5B6803F48003002BE8
:1033A40016D15C4B1B6803F00203002B05D07B682D
:1033B400DB68012B01D00123C4E15649554B1B683E
:1033C40023F0F8027B681B69DB0013430B603AE0CF
:1033D4007B68DB68002B20D04F4B01221A60FDF77D
:1033E40053FB386108E0FDF74FFB02463B69D31AF3
:1033F400022B01D90323A5E1464B1B6803F002030A
:10340400002BF0D04349434B1B6823F0F8027B6840
:103414001B69DB0013430B6015E03F4B00221A606D
:10342400FDF732FB386108E0FDF72EFB02463B69ED
:10343400D31A022B01D9032384E1364B1B6803F012
:103444000203002BF0D17B681B6803F00803002BF8
:1034540030D07B685B69002B16D0304B01221A6098
:10346400FDF712FB386108E0FDF70EFB02463B69ED
:10347400D31A022B01D9032364E1264B5B6F03F0BB
:103484000203002BF0D015E0244B00221A60FDF754
:10349400FBFA386108E0FDF7F7FA02463B69D31AF4
:1034A400022B01D903234DE11A4B5B6F03F0020396
:1034B400002BF0D17B681B6803F00403002B00F0A1
:1034C400A0800023FB75134B1B6C03F08053002B6F
:1034D4000FD10023BB600F4A0E4B1B6C43F080538B
:1034E40013640C4B1B6C03F08053BB60BB6801235B
:1034F400FB750B4B1B6803F48073002B21D1084A26
:10350400074B1B6843F480731360FDF7BDFA386101
:1035140011E000BF0038024000004742800E4742DD
:1035240000700040FDF7B0FA02463B69D31A022B43
:1035340001D9032306E1854B1B6803F48073002B38
:10354400F0D07B689B68012B06D1814A804B1B6FAE
:1035540043F0010313671CE07B689B68052B0CD1C7
:103564007B4A7B4B1B6F43F004031367784A784B09
:103574001B6F43F0010313670BE0754A744B1B6F19
:1035840023F001031367724A714B1B6F23F004038A
:1035940013677B689B68002B15D0FDF775FA3861BB
:1035A4000AE0FDF771FA02463B69D31A41F2883208
:1035B400934201D90323C5E0654B1B6F03F002035B
:1035C400002BEED014E0FDF75FFA38610AE0FDF756
:1035D4005BFA02463B69D31A41F28832934201D91D
:1035E4000323AFE05A4B1B6F03F00203002BEED111
:1035F400FB7D012B05D1564A554B1B6C23F08053A0
:1036040013647B689B69002B00F09B80504B9B6884
:1036140003F00C03082B5CD07B689B69022B41D11F
:103624004C4B00221A60FDF72FFA386108E0FDF7D1
:103634002BFA02463B69D31A022B01D9032381E0FA
:10364400434B1B6803F00073002BF0D140497B68A7
:10365400DA697B681B6A1A437B685B6A9B011A43BD
:103664007B689B6A5B08013B1B041A437B68DB6A2B
:103674001B0613434B60374B01221A60FDF704FA13
:10368400386108E0FDF700FA02463B69D31A022BC1
:1036940001D9032356E02E4B1B6803F00073002B63
:1036A400F0D04EE02B4B00221A60FDF7EDF93861A3
:1036B40008E0FDF7E9F902463B69D31A022B01D968
:1036C40003233FE0224B1B6803F00073002BF0D16F
:1036D40037E07B689B69012B01D1012332E01C4B4D
:1036E4005B68FB607B689B69012B28D0FB6803F453
:1036F40080027B68DB699A4221D1FB6803F03F02B8
:103704007B681B6A9A421AD1FA6847F6C073134061
:103714007A68526A9201934211D1FB6803F44032F1
:103724007B689B6A5B08013B1B049A4207D1FB68D8
:1037340003F070627B68DB6A1B069A4201D00123A6
:1037440000E0002318461837BD4680BD00700040D5
:10375400003802406000474280B584B000AF786012
:1037640039607B68002B01D10123CCE0684B1B68D6
:1037740003F007023B689A420CD2654B3A68D2B216
:103784001A70634B1B6803F007023B689A4201D02E
:103794000123B8E07B681B6803F00203002B20D0F0
:1037A4007B681B6803F00403002B05D0594A594B6E
:1037B4009B6843F4E05393607B681B6803F0080341
:1037C400002B05D0534A534B9B6843F460439360EA
:1037D4005049504B9B6823F0F0027B689B6813436D
:1037E4008B607B681B6803F00103002B44D07B686B
:1037F4005B68012B07D1474B1B6803F40033002B94
:1038040019D101237FE07B685B68022B03D07B68BE
:103814005B68032B07D13F4B1B6803F00073002B3D
:1038240009D101236FE03B4B1B6803F00203002B1B
:1038340001D1012367E03749364B9B6823F003022B
:103844007B685B6813438B60FDF71EF9F8600AE040
:10385400FDF71AF90246FB68D31A41F28832934203
:1038640001D903234FE02B4B9B6803F00C027B68C8
:103874005B689B009A42EBD1254B1B6803F007025F
:103884003B689A420CD9224B3A68D2B21A70204B48
:103894001B6803F007023B689A4201D0012332E01F
:1038A4007B681B6803F00403002B08D01949194BEB
:1038B4009B6823F4E0527B68DB6813438B607B686E
:1038C4001B6803F00803002B09D01249114B9B68B5
:1038D40023F460427B681B69DB0013438B6000F0B8
:1038E40021F801460B4B9B681B0903F00F030A4A9E
:1038F400D35C21FA03F3094A1360094B1B68184689
:10390400FDF77EF8002318461037BD4680BD00BF82
:10391400003C024000380240B83B00080000002090
:10392400040000202DE9F04F87B000AF0022FA60B8
:1039340000227A610022BA6000223A61514A9268F8
:1039440002F00C02042A07D0082A08D0002A40F00A
:1039540090804D4B3B618FE04C4B3B618CE0494A7E
:10396400526802F03F02FA60464A526802F480024A
:10397400002A23D0434B5B689B094FF0000440F2BC
:10398400FF114FF0000203EA010304EA02043F4A74
:1039940002FB04F1002202FB03F20A443B49A3FBAD
:1039A400010153181946FB684FF000041A462346D8
:1039B400FCF70EFC03460C467B614CE0314A52682E
:1039C400920911464FF0000240F2FF154FF0000635
:1039D40005EA010506EA0206294632464FEA421B79
:1039E4004BEAD16B4FEA411A51465A46AA46B346AE
:1039F40055465E464D1B62EB060629463246940147
:103A040044EA91648B015B1A64EB02044FEAC40933
:103A140049EA53794FEAC30843464C4655465E4645
:103A2400ED1846EB04062B463446A2027A607A6807
:103A340042EA93527A609B023B6097E8180018466A
:103A44002146FB684FF000041A462346FCF7C0FBEE
:103A540003460C467B610B4B5B681B0C03F00303B2
:103A640001335B00BB607A69BB68B2FBF3F33B6173
:103A740002E0054B3B6100BF3B6918461C37BD465D
:103A8400BDE8F08F003802400024F40040787D0146
:103A940080B400AF034B1B681846BD465DF8047B39
:103AA400704700BF0000002080B500AFFFF7F0FFB3
:103AB4000146054B9B689B0A03F00703034AD35C4A
:103AC40021FA03F3184680BD00380240C83B0008C1
:103AD400DFF834D00D480E490E4A002302E0D458D2
:103AE400C4500433C4188C42F9D30B4A0B4C002342
:103AF40001E013600432A242FBD3FCF74DFF00F057
:103B040011F8FCF779FD70470080012000000020C7
:103B14000C000020E03B00080C0000208000002086
:103B2400FEE7000070B50D4E0D4CA41BA41000253B
:103B3400A54209D10B4E0C4C00F020F8A41BA41094
:103B44000025A54205D170BD56F8253098470135AA
:103B5400EEE756F8253098470135F2E7D83B0008E0
:103B6400D83B0008D83B0008DC3B0008024403466D
:103B7400934200D1704703F8011BF9E7F8B500BF81
:103B8400F8BC08BC9E467047F8B500BFF8BC08BC3A
:043B94009E46704792
:103B98000040145448656C6C6F20576F726C642138
:103BA800000000005468616E6B20796F750000009A
:103BB80000000000000000000102030406070809D5
:083BC8000000000001020304EB
:083BD00034C6FF7F0100000074
:043BD800B901000827
:043BDC009501000847
:0C3BE0000024F4001000000001000000B0
:0400000508003AD5E0
:00000001FF
